{
  "_format": "hh-sol-artifact-1",
  "contractName": "SimplifiedMultiChainDIDRegistry",
  "sourceName": "contracts/SimplifiedMultiChainDIDRegistry.sol",
  "abi": [
    {
      "inputs": [],
      "stateMutability": "nonpayable",
      "type": "constructor"
    },
    {
      "inputs": [],
      "name": "ECDSAInvalidSignature",
      "type": "error"
    },
    {
      "inputs": [
        {
          "internalType": "uint256",
          "name": "length",
          "type": "uint256"
        }
      ],
      "name": "ECDSAInvalidSignatureLength",
      "type": "error"
    },
    {
      "inputs": [
        {
          "internalType": "bytes32",
          "name": "s",
          "type": "bytes32"
        }
      ],
      "name": "ECDSAInvalidSignatureS",
      "type": "error"
    },
    {
      "inputs": [
        {
          "internalType": "address",
          "name": "owner",
          "type": "address"
        }
      ],
      "name": "OwnableInvalidOwner",
      "type": "error"
    },
    {
      "inputs": [
        {
          "internalType": "address",
          "name": "account",
          "type": "address"
        }
      ],
      "name": "OwnableUnauthorizedAccount",
      "type": "error"
    },
    {
      "anonymous": false,
      "inputs": [
        {
          "indexed": true,
          "internalType": "string",
          "name": "did",
          "type": "string"
        },
        {
          "indexed": true,
          "internalType": "address",
          "name": "owner",
          "type": "address"
        },
        {
          "indexed": false,
          "internalType": "string",
          "name": "ipfsMetadata",
          "type": "string"
        },
        {
          "indexed": false,
          "internalType": "uint256",
          "name": "timestamp",
          "type": "uint256"
        }
      ],
      "name": "DIDRegistered",
      "type": "event"
    },
    {
      "anonymous": false,
      "inputs": [
        {
          "indexed": true,
          "internalType": "address",
          "name": "previousOwner",
          "type": "address"
        },
        {
          "indexed": true,
          "internalType": "address",
          "name": "newOwner",
          "type": "address"
        }
      ],
      "name": "OwnershipTransferred",
      "type": "event"
    },
    {
      "anonymous": false,
      "inputs": [
        {
          "indexed": true,
          "internalType": "string",
          "name": "did",
          "type": "string"
        },
        {
          "indexed": false,
          "internalType": "string",
          "name": "walletAddress",
          "type": "string"
        },
        {
          "indexed": false,
          "internalType": "string",
          "name": "blockchain",
          "type": "string"
        },
        {
          "indexed": false,
          "internalType": "uint256",
          "name": "timestamp",
          "type": "uint256"
        }
      ],
      "name": "WalletProofAdded",
      "type": "event"
    },
    {
      "inputs": [],
      "name": "MAX_WALLETS_PER_DID",
      "outputs": [
        {
          "internalType": "uint256",
          "name": "",
          "type": "uint256"
        }
      ],
      "stateMutability": "view",
      "type": "function"
    },
    {
      "inputs": [],
      "name": "PROOF_MESSAGE_PREFIX",
      "outputs": [
        {
          "internalType": "string",
          "name": "",
          "type": "string"
        }
      ],
      "stateMutability": "view",
      "type": "function"
    },
    {
      "inputs": [
        {
          "internalType": "string",
          "name": "",
          "type": "string"
        }
      ],
      "name": "didRecords",
      "outputs": [
        {
          "internalType": "string",
          "name": "did",
          "type": "string"
        },
        {
          "internalType": "string",
          "name": "ipfsMetadata",
          "type": "string"
        },
        {
          "internalType": "uint256",
          "name": "timestamp",
          "type": "uint256"
        },
        {
          "internalType": "bool",
          "name": "isActive",
          "type": "bool"
        }
      ],
      "stateMutability": "view",
      "type": "function"
    },
    {
      "inputs": [
        {
          "internalType": "string",
          "name": "",
          "type": "string"
        }
      ],
      "name": "didToOwner",
      "outputs": [
        {
          "internalType": "address",
          "name": "",
          "type": "address"
        }
      ],
      "stateMutability": "view",
      "type": "function"
    },
    {
      "inputs": [
        {
          "internalType": "string",
          "name": "did",
          "type": "string"
        }
      ],
      "name": "getDIDRecord",
      "outputs": [
        {
          "components": [
            {
              "internalType": "string",
              "name": "did",
              "type": "string"
            },
            {
              "internalType": "string",
              "name": "ipfsMetadata",
              "type": "string"
            },
            {
              "internalType": "string[]",
              "name": "walletAddresses",
              "type": "string[]"
            },
            {
              "internalType": "string[]",
              "name": "blockchains",
              "type": "string[]"
            },
            {
              "internalType": "uint256",
              "name": "timestamp",
              "type": "uint256"
            },
            {
              "internalType": "bool",
              "name": "isActive",
              "type": "bool"
            }
          ],
          "internalType": "struct SimplifiedMultiChainDIDRegistry.DIDRecord",
          "name": "",
          "type": "tuple"
        }
      ],
      "stateMutability": "view",
      "type": "function"
    },
    {
      "inputs": [
        {
          "internalType": "string",
          "name": "did",
          "type": "string"
        },
        {
          "internalType": "string",
          "name": "walletAddress",
          "type": "string"
        }
      ],
      "name": "isWalletVerifiedForDID",
      "outputs": [
        {
          "internalType": "bool",
          "name": "",
          "type": "bool"
        }
      ],
      "stateMutability": "view",
      "type": "function"
    },
    {
      "inputs": [],
      "name": "owner",
      "outputs": [
        {
          "internalType": "address",
          "name": "",
          "type": "address"
        }
      ],
      "stateMutability": "view",
      "type": "function"
    },
    {
      "inputs": [
        {
          "internalType": "address",
          "name": "",
          "type": "address"
        }
      ],
      "name": "ownerToDID",
      "outputs": [
        {
          "internalType": "string",
          "name": "",
          "type": "string"
        }
      ],
      "stateMutability": "view",
      "type": "function"
    },
    {
      "inputs": [
        {
          "internalType": "string",
          "name": "did",
          "type": "string"
        },
        {
          "internalType": "string",
          "name": "ipfsMetadata",
          "type": "string"
        },
        {
          "components": [
            {
              "internalType": "string",
              "name": "walletAddress",
              "type": "string"
            },
            {
              "internalType": "string",
              "name": "blockchain",
              "type": "string"
            },
            {
              "internalType": "bytes",
              "name": "signature",
              "type": "bytes"
            },
            {
              "internalType": "string",
              "name": "message",
              "type": "string"
            }
          ],
          "internalType": "struct SimplifiedMultiChainDIDRegistry.WalletProof[]",
          "name": "walletProofs",
          "type": "tuple[]"
        }
      ],
      "name": "registerDID",
      "outputs": [],
      "stateMutability": "nonpayable",
      "type": "function"
    },
    {
      "inputs": [],
      "name": "renounceOwnership",
      "outputs": [],
      "stateMutability": "nonpayable",
      "type": "function"
    },
    {
      "inputs": [
        {
          "internalType": "string",
          "name": "",
          "type": "string"
        }
      ],
      "name": "supportedBlockchains",
      "outputs": [
        {
          "internalType": "bool",
          "name": "",
          "type": "bool"
        }
      ],
      "stateMutability": "view",
      "type": "function"
    },
    {
      "inputs": [
        {
          "internalType": "address",
          "name": "newOwner",
          "type": "address"
        }
      ],
      "name": "transferOwnership",
      "outputs": [],
      "stateMutability": "nonpayable",
      "type": "function"
    }
  ],
  "bytecode": "0x608060405234801561001057600080fd5b50338061003757604051631e4fbdf760e01b81526000600482015260240160405180910390fd5b61004081610143565b506001600560405161006190684554485f544553543560b81b815260090190565b90815260408051918290036020018220805493151560ff1994851617905567109510d7d51154d560c21b825260056008808401829052825193849003602890810185208054871660019081179091556714d3d317d51154d560c21b865291850183905283519485900301842080548616821790556208aa8960eb1b845260038085018390528351948590036023908101862080548816841790556242544360e81b86528582018490528451958690038101862080548816841790556214d3d360ea1b865290850192909252915192839003019091208054909216179055610193565b600080546001600160a01b038381166001600160a01b0319831681178455604051919092169283917f8be0079c531659141344cd1fd0a4f28419497f9722a3daafe3b4186f6b6457e09190a35050565b61230680620001a36000396000f3fe608060405234801561001057600080fd5b50600436106100b45760003560e01c80638da5cb5b116100715780638da5cb5b1461019b578063a7f15cca146101ac578063c1156a89146101bf578063d0e3752c14610204578063f2fde38b14610217578063fbcfc0151461022a57600080fd5b806336c76c36146100b9578063399d549e146100d45780633e12859a146101205780635f5d77801461015e578063715018a614610173578063806abd8d1461017b575b600080fd5b6100c1600a81565b6040519081526020015b60405180910390f35b6101086100e2366004611b05565b80516020818301810180516002825292820191909301209152546001600160a01b031681565b6040516001600160a01b0390911681526020016100cb565b61014e61012e366004611b05565b805160208183018101805160058252928201919093012091525460ff1681565b60405190151581526020016100cb565b61017161016c366004611bff565b61024d565b005b610171610827565b61018e610189366004611cc8565b61083b565b6040516100cb9190611daf565b6000546001600160a01b0316610108565b61014e6101ba366004611e47565b610c07565b6101f76040518060400160405280601981526020017802224a21027bbb732b939b434b810283937b7b3103337b91d1603d1b81525081565b6040516100cb9190611eb3565b6101f7610212366004611ec6565b610c56565b610171610225366004611ec6565b610cf0565b61023d610238366004611b05565b610d2e565b6040516100cb9493929190611eef565b846102955760405162461bcd60e51b81526020600482015260136024820152724449442063616e6e6f7420626520656d70747960681b60448201526064015b60405180910390fd5b826102e25760405162461bcd60e51b815260206004820152601d60248201527f49504653206d657461646174612063616e6e6f7420626520656d707479000000604482015260640161028c565b8061033a5760405162461bcd60e51b815260206004820152602260248201527f4174206c65617374206f6e652077616c6c65742070726f6f6620726571756972604482015261195960f21b606482015260840161028c565b600a8111156103845760405162461bcd60e51b8152602060048201526016602482015275546f6f206d616e792077616c6c65742070726f6f667360501b604482015260640161028c565b60018686604051610396929190611f2d565b90815260405190819003602001902080546103b090611f3d565b1590506103f85760405162461bcd60e51b815260206004820152601660248201527511125108185b1c9958591e481c9959da5cdd195c995960521b604482015260640161028c565b60005b8181101561044357610431878785858581811061041a5761041a611f77565b905060200281019061042c9190611f8d565b610e75565b8061043b81611fc3565b9150506103fb565b50600060018787604051610458929190611f2d565b90815260405190819003602001902090508061047587898361202b565b506001810161048585878361202b565b5042600482015560058101805460ff1916600117905560005b8281101561069157816002018484838181106104bc576104bc611f77565b90506020028101906104ce9190611f8d565b6104d890806120ec565b825460018101845560009384526020909320909201916104f8918361202b565b508160030184848381811061050f5761050f611f77565b90506020028101906105219190611f8d565b61052f9060208101906120ec565b8254600181018455600093845260209093209092019161054f918361202b565b50600160048989604051610564929190611f2d565b908152602001604051809103902085858481811061058457610584611f77565b90506020028101906105969190611f8d565b6105a090806120ec565b6040516105ae929190611f2d565b908152604051908190036020018120805492151560ff19909316929092179091556105dc9089908990611f2d565b60405180910390207f04f525520177fcee91750862a757a903d27c965f0cad2b2d759b2ad0a2e1d47485858481811061061757610617611f77565b90506020028101906106299190611f8d565b61063390806120ec565b87878681811061064557610645611f77565b90506020028101906106579190611f8d565b6106659060208101906120ec565b4260405161067795949392919061215c565b60405180910390a28061068981611fc3565b91505061049e565b503360005b83811015610767576106d88585838181106106b3576106b3611f77565b90506020028101906106c59190611f8d565b6106d39060208101906120ec565b61114a565b15610755576107138585838181106106f2576106f2611f77565b90506020028101906107049190611f8d565b61070e90806120ec565b611205565b156107555761074e85858381811061072d5761072d611f77565b905060200281019061073f9190611f8d565b61074990806120ec565b6113ae565b9150610767565b8061075f81611fc3565b915050610696565b50806002898960405161077b929190611f2d565b908152604080516020928190038301902080546001600160a01b0319166001600160a01b0394851617905591831660009081526003909152206107bf888a8361202b565b50806001600160a01b031688886040516107da929190611f2d565b60405180910390207f49b968ac3311730480e7d106381d0cd29fbc246fe4ed01299f4c32010c5c5ac188884260405161081593929190612196565b60405180910390a35050505050505050565b61082f611410565b610839600061143d565b565b6108766040518060c0016040528060608152602001606081526020016060815260200160608152602001600081526020016000151581525090565b60006001848460405161088a929190611f2d565b90815260405190819003602001902080546108a490611f3d565b9050116108e35760405162461bcd60e51b815260206004820152600d60248201526c111251081b9bdd08199bdd5b99609a1b604482015260640161028c565b600183836040516108f5929190611f2d565b90815260200160405180910390206040518060c001604052908160008201805461091e90611f3d565b80601f016020809104026020016040519081016040528092919081815260200182805461094a90611f3d565b80156109975780601f1061096c57610100808354040283529160200191610997565b820191906000526020600020905b81548152906001019060200180831161097a57829003601f168201915b505050505081526020016001820180546109b090611f3d565b80601f01602080910402602001604051908101604052809291908181526020018280546109dc90611f3d565b8015610a295780601f106109fe57610100808354040283529160200191610a29565b820191906000526020600020905b815481529060010190602001808311610a0c57829003601f168201915b5050505050815260200160028201805480602002602001604051908101604052809291908181526020016000905b82821015610b03578382906000526020600020018054610a7690611f3d565b80601f0160208091040260200160405190810160405280929190818152602001828054610aa290611f3d565b8015610aef5780601f10610ac457610100808354040283529160200191610aef565b820191906000526020600020905b815481529060010190602001808311610ad257829003601f168201915b505050505081526020019060010190610a57565b50505050815260200160038201805480602002602001604051908101604052809291908181526020016000905b82821015610bdc578382906000526020600020018054610b4f90611f3d565b80601f0160208091040260200160405190810160405280929190818152602001828054610b7b90611f3d565b8015610bc85780601f10610b9d57610100808354040283529160200191610bc8565b820191906000526020600020905b815481529060010190602001808311610bab57829003601f168201915b505050505081526020019060010190610b30565b505050908252506004820154602082015260059091015460ff16151560409091015290505b92915050565b600060048585604051610c1b929190611f2d565b90815260200160405180910390208383604051610c39929190611f2d565b9081526040519081900360200190205460ff169050949350505050565b60036020526000908152604090208054610c6f90611f3d565b80601f0160208091040260200160405190810160405280929190818152602001828054610c9b90611f3d565b8015610ce85780601f10610cbd57610100808354040283529160200191610ce8565b820191906000526020600020905b815481529060010190602001808311610ccb57829003601f168201915b505050505081565b610cf8611410565b6001600160a01b038116610d2257604051631e4fbdf760e01b81526000600482015260240161028c565b610d2b8161143d565b50565b8051602081830181018051600182529282019190930120915280548190610d5490611f3d565b80601f0160208091040260200160405190810160405280929190818152602001828054610d8090611f3d565b8015610dcd5780601f10610da257610100808354040283529160200191610dcd565b820191906000526020600020905b815481529060010190602001808311610db057829003601f168201915b505050505090806001018054610de290611f3d565b80601f0160208091040260200160405190810160405280929190818152602001828054610e0e90611f3d565b8015610e5b5780601f10610e3057610100808354040283529160200191610e5b565b820191906000526020600020905b815481529060010190602001808311610e3e57829003601f168201915b50505050600483015460059093015491929160ff16905084565b6000610e8182806120ec565b905011610ed05760405162461bcd60e51b815260206004820152601e60248201527f57616c6c657420616464726573732063616e6e6f7420626520656d7074790000604482015260640161028c565b6000610edf60208301836120ec565b905011610f2e5760405162461bcd60e51b815260206004820152601a60248201527f426c6f636b636861696e2063616e6e6f7420626520656d707479000000000000604482015260640161028c565b6000610f3d60408301836120ec565b905011610f8c5760405162461bcd60e51b815260206004820152601960248201527f5369676e61747572652063616e6e6f7420626520656d70747900000000000000604482015260640161028c565b6005610f9b60208301836120ec565b604051610fa9929190611f2d565b9081526040519081900360200190205460ff166110085760405162461bcd60e51b815260206004820152601860248201527f426c6f636b636861696e206e6f7420737570706f727465640000000000000000604482015260640161028c565b60006040518060400160405280601981526020017802224a21027bbb732b939b434b810283937b7b3103337b91d1603d1b8152508484604051602001611050939291906121ba565b60405160208183030381529060405290508060405160200161107291906121e2565b60408051601f19818403018152919052805160209091012061109760608401846120ec565b6040516020016110a8929190611f2d565b60405160208183030381529060405280519060200120146111035760405162461bcd60e51b8152602060048201526015602482015274496e76616c69642070726f6f66206d65737361676560581b604482015260640161028c565b6111136106d360208401846120ec565b156111445761114461112583806120ec565b61113260608601866120ec565b61113f60408801886120ec565b61148d565b50505050565b604051684554485f544553543560b81b602082015260009060290160405160208183030381529060405280519060200120838360405160200161118e929190611f2d565b6040516020818303038152906040528051906020012014806111fe57506040516208aa8960eb1b60208201526023016040516020818303038152906040528051906020012083836040516020016111e6929190611f2d565b60405160208183030381529060405280519060200120145b9392505050565b60008083838080601f01602080910402602001604051908101604052809392919081815260200183838082843760009201919091525050825192935050602a9091149050611257576000915050610c01565b8060008151811061126a5761126a611f77565b6020910101516001600160f81b031916600360fc1b1415806112b257508060018151811061129a5761129a611f77565b6020910101516001600160f81b031916600f60fb1b14155b156112c1576000915050610c01565b60025b602a8110156113a35760008282815181106112e1576112e1611f77565b01602001516001600160f81b0319169050600360fc1b81108015906113145750603960f81b6001600160f81b0319821611155b15801561134a5750606160f81b6001600160f81b03198216108015906113485750603360f91b6001600160f81b0319821611155b155b801561137f5750604160f81b6001600160f81b031982161080159061137d5750602360f91b6001600160f81b0319821611155b155b156113905760009350505050610c01565b508061139b81611fc3565b9150506112c4565b506001949350505050565b60006113ba8383611205565b6114065760405162461bcd60e51b815260206004820152601860248201527f496e76616c696420457468657265756d20616464726573730000000000000000604482015260640161028c565b6111fe83836115da565b6000546001600160a01b031633146108395760405163118cdaa760e01b815233600482015260240161028c565b600080546001600160a01b038381166001600160a01b0319831681178455604051919092169283917f8be0079c531659141344cd1fd0a4f28419497f9722a3daafe3b4186f6b6457e09190a35050565b6114978686611205565b6114e35760405162461bcd60e51b815260206004820152601f60248201527f496e76616c696420457468657265756d206164647265737320666f726d617400604482015260640161028c565b60006114ef87876113ae565b905060006114fc85611781565b8686604051602001611510939291906121f4565b604051602081830303815290604052805190602001209050600061156c85858080601f01602080910402602001604051908101604052809392919081815260200183838082843760009201919091525086939250506118149050565b9050826001600160a01b0316816001600160a01b0316146115cf5760405162461bcd60e51b815260206004820152601a60248201527f496e76616c696420457468657265756d207369676e6174757265000000000000604482015260640161028c565b505050505050505050565b60008083838080601f01602080910402602001604051908101604052809392919081815260200183838082843760009201919091525050825192935050602a90911490506116635760405162461bcd60e51b8152602060048201526016602482015275092dcecc2d8d2c840c2c8c8e4cae6e640d8cadccee8d60531b604482015260640161028c565b600060025b602a8110156117785761167c601083612248565b9150600083828151811061169257611692611f77565b016020015160f81c9050603081108015906116b1575060398160ff1611155b156116d5576116c160308261227a565b6116ce9060ff1684612293565b9250611765565b60418160ff16101580156116ed575060468160ff1611155b156116fd576116c160378261227a565b60618160ff1610158015611715575060668160ff1611155b15611725576116c160578261227a565b60405162461bcd60e51b815260206004820152601560248201527424b73b30b634b2103432bc1031b430b930b1ba32b960591b604482015260640161028c565b508061177081611fc3565b915050611668565b50949350505050565b6060600061178e8361183e565b600101905060008167ffffffffffffffff8111156117ae576117ae611aef565b6040519080825280601f01601f1916602001820160405280156117d8576020820181803683370190505b5090508181016020015b600019016f181899199a1a9b1b9c1cb0b131b232b360811b600a86061a8153600a85049450846117e257509392505050565b6000806000806118248686611916565b9250925092506118348282611963565b5090949350505050565b60008072184f03e93ff9f4daa797ed6e38ed64bf6a1f0160401b831061187d5772184f03e93ff9f4daa797ed6e38ed64bf6a1f0160401b830492506040015b6d04ee2d6d415b85acef810000000083106118a9576d04ee2d6d415b85acef8100000000830492506020015b662386f26fc1000083106118c757662386f26fc10000830492506010015b6305f5e10083106118df576305f5e100830492506008015b61271083106118f357612710830492506004015b60648310611905576064830492506002015b600a8310610c015760010192915050565b600080600083516041036119505760208401516040850151606086015160001a61194288828585611a20565b95509550955050505061195c565b50508151600091506002905b9250925092565b6000826003811115611977576119776122ba565b03611980575050565b6001826003811115611994576119946122ba565b036119b25760405163f645eedf60e01b815260040160405180910390fd5b60028260038111156119c6576119c66122ba565b036119e75760405163fce698f760e01b81526004810182905260240161028c565b60038260038111156119fb576119fb6122ba565b03611a1c576040516335e2f38360e21b81526004810182905260240161028c565b5050565b600080807f7fffffffffffffffffffffffffffffff5d576e7357a4501ddfe92f46681b20a0841115611a5b5750600091506003905082611ae5565b604080516000808252602082018084528a905260ff891692820192909252606081018790526080810186905260019060a0016020604051602081039080840390855afa158015611aaf573d6000803e3d6000fd5b5050604051601f1901519150506001600160a01b038116611adb57506000925060019150829050611ae5565b9250600091508190505b9450945094915050565b634e487b7160e01b600052604160045260246000fd5b600060208284031215611b1757600080fd5b813567ffffffffffffffff80821115611b2f57600080fd5b818401915084601f830112611b4357600080fd5b813581811115611b5557611b55611aef565b604051601f8201601f19908116603f01168101908382118183101715611b7d57611b7d611aef565b81604052828152876020848701011115611b9657600080fd5b826020860160208301376000928101602001929092525095945050505050565b60008083601f840112611bc857600080fd5b50813567ffffffffffffffff811115611be057600080fd5b602083019150836020828501011115611bf857600080fd5b9250929050565b60008060008060008060608789031215611c1857600080fd5b863567ffffffffffffffff80821115611c3057600080fd5b611c3c8a838b01611bb6565b90985096506020890135915080821115611c5557600080fd5b611c618a838b01611bb6565b90965094506040890135915080821115611c7a57600080fd5b818901915089601f830112611c8e57600080fd5b813581811115611c9d57600080fd5b8a60208260051b8501011115611cb257600080fd5b6020830194508093505050509295509295509295565b60008060208385031215611cdb57600080fd5b823567ffffffffffffffff811115611cf257600080fd5b611cfe85828601611bb6565b90969095509350505050565b60005b83811015611d25578181015183820152602001611d0d565b50506000910152565b60008151808452611d46816020860160208601611d0a565b601f01601f19169290920160200192915050565b600081518084526020808501808196508360051b8101915082860160005b85811015611da2578284038952611d90848351611d2e565b98850198935090840190600101611d78565b5091979650505050505050565b602081526000825160c06020840152611dcb60e0840182611d2e565b90506020840151601f1980858403016040860152611de98383611d2e565b92506040860151915080858403016060860152611e068383611d5a565b9250606086015191508085840301608086015250611e248282611d5a565b915050608084015160a084015260a0840151151560c08401528091505092915050565b60008060008060408587031215611e5d57600080fd5b843567ffffffffffffffff80821115611e7557600080fd5b611e8188838901611bb6565b90965094506020870135915080821115611e9a57600080fd5b50611ea787828801611bb6565b95989497509550505050565b6020815260006111fe6020830184611d2e565b600060208284031215611ed857600080fd5b81356001600160a01b03811681146111fe57600080fd5b608081526000611f026080830187611d2e565b8281036020840152611f148187611d2e565b6040840195909552505090151560609091015292915050565b8183823760009101908152919050565b600181811c90821680611f5157607f821691505b602082108103611f7157634e487b7160e01b600052602260045260246000fd5b50919050565b634e487b7160e01b600052603260045260246000fd5b60008235607e19833603018112611fa357600080fd5b9190910192915050565b634e487b7160e01b600052601160045260246000fd5b600060018201611fd557611fd5611fad565b5060010190565b601f82111561202657600081815260208120601f850160051c810160208610156120035750805b601f850160051c820191505b818110156120225782815560010161200f565b5050505b505050565b67ffffffffffffffff83111561204357612043611aef565b612057836120518354611f3d565b83611fdc565b6000601f84116001811461208b57600085156120735750838201355b600019600387901b1c1916600186901b1783556120e5565b600083815260209020601f19861690835b828110156120bc578685013582556020948501946001909201910161209c565b50868210156120d95760001960f88860031b161c19848701351681555b505060018560011b0183555b5050505050565b6000808335601e1984360301811261210357600080fd5b83018035915067ffffffffffffffff82111561211e57600080fd5b602001915036819003821315611bf857600080fd5b81835281816020850137506000828201602090810191909152601f909101601f19169091010190565b606081526000612170606083018789612133565b8281036020840152612183818688612133565b9150508260408301529695505050505050565b6040815260006121aa604083018587612133565b9050826020830152949350505050565b600084516121cc818460208901611d0a565b8201838582376000930192835250909392505050565b60008251611fa3818460208701611d0a565b7f19457468657265756d205369676e6564204d6573736167653a0a00000000000081526000845161222c81601a850160208901611d0a565b82018385601a83013760009301601a0192835250909392505050565b6001600160a01b0382811682821681810283169291811582850482141761227157612271611fad565b50505092915050565b60ff8281168282160390811115610c0157610c01611fad565b6001600160a01b038181168382160190808211156122b3576122b3611fad565b5092915050565b634e487b7160e01b600052602160045260246000fdfea2646970667358221220135a4c3ad7c3578ef937b1e9bd725ef10d566fa01b5cd95715dfcf79b97bfa6464736f6c63430008140033",
  "linkReferences": {},
  "deployedLinkReferences": {}
}