{
  "_format": "hh-sol-artifact-1",
  "contractName": "SBT",
  "sourceName": "contracts/SBT.sol",
  "abi": [
    {
      "inputs": [],
      "stateMutability": "nonpayable",
      "type": "constructor"
    },
    {
      "inputs": [
        {
          "internalType": "address",
          "name": "sender",
          "type": "address"
        },
        {
          "internalType": "uint256",
          "name": "tokenId",
          "type": "uint256"
        },
        {
          "internalType": "address",
          "name": "owner",
          "type": "address"
        }
      ],
      "name": "ERC721IncorrectOwner",
      "type": "error"
    },
    {
      "inputs": [
        {
          "internalType": "address",
          "name": "operator",
          "type": "address"
        },
        {
          "internalType": "uint256",
          "name": "tokenId",
          "type": "uint256"
        }
      ],
      "name": "ERC721InsufficientApproval",
      "type": "error"
    },
    {
      "inputs": [
        {
          "internalType": "address",
          "name": "approver",
          "type": "address"
        }
      ],
      "name": "ERC721InvalidApprover",
      "type": "error"
    },
    {
      "inputs": [
        {
          "internalType": "address",
          "name": "operator",
          "type": "address"
        }
      ],
      "name": "ERC721InvalidOperator",
      "type": "error"
    },
    {
      "inputs": [
        {
          "internalType": "address",
          "name": "owner",
          "type": "address"
        }
      ],
      "name": "ERC721InvalidOwner",
      "type": "error"
    },
    {
      "inputs": [
        {
          "internalType": "address",
          "name": "receiver",
          "type": "address"
        }
      ],
      "name": "ERC721InvalidReceiver",
      "type": "error"
    },
    {
      "inputs": [
        {
          "internalType": "address",
          "name": "sender",
          "type": "address"
        }
      ],
      "name": "ERC721InvalidSender",
      "type": "error"
    },
    {
      "inputs": [
        {
          "internalType": "uint256",
          "name": "tokenId",
          "type": "uint256"
        }
      ],
      "name": "ERC721NonexistentToken",
      "type": "error"
    },
    {
      "inputs": [
        {
          "internalType": "address",
          "name": "owner",
          "type": "address"
        }
      ],
      "name": "OwnableInvalidOwner",
      "type": "error"
    },
    {
      "inputs": [
        {
          "internalType": "address",
          "name": "account",
          "type": "address"
        }
      ],
      "name": "OwnableUnauthorizedAccount",
      "type": "error"
    },
    {
      "anonymous": false,
      "inputs": [
        {
          "indexed": true,
          "internalType": "address",
          "name": "owner",
          "type": "address"
        },
        {
          "indexed": true,
          "internalType": "address",
          "name": "approved",
          "type": "address"
        },
        {
          "indexed": true,
          "internalType": "uint256",
          "name": "tokenId",
          "type": "uint256"
        }
      ],
      "name": "Approval",
      "type": "event"
    },
    {
      "anonymous": false,
      "inputs": [
        {
          "indexed": true,
          "internalType": "address",
          "name": "owner",
          "type": "address"
        },
        {
          "indexed": true,
          "internalType": "address",
          "name": "operator",
          "type": "address"
        },
        {
          "indexed": false,
          "internalType": "bool",
          "name": "approved",
          "type": "bool"
        }
      ],
      "name": "ApprovalForAll",
      "type": "event"
    },
    {
      "anonymous": false,
      "inputs": [
        {
          "indexed": false,
          "internalType": "uint256",
          "name": "_fromTokenId",
          "type": "uint256"
        },
        {
          "indexed": false,
          "internalType": "uint256",
          "name": "_toTokenId",
          "type": "uint256"
        }
      ],
      "name": "BatchMetadataUpdate",
      "type": "event"
    },
    {
      "anonymous": false,
      "inputs": [
        {
          "indexed": false,
          "internalType": "uint256",
          "name": "_tokenId",
          "type": "uint256"
        }
      ],
      "name": "MetadataUpdate",
      "type": "event"
    },
    {
      "anonymous": false,
      "inputs": [
        {
          "indexed": true,
          "internalType": "address",
          "name": "previousOwner",
          "type": "address"
        },
        {
          "indexed": true,
          "internalType": "address",
          "name": "newOwner",
          "type": "address"
        }
      ],
      "name": "OwnershipTransferred",
      "type": "event"
    },
    {
      "anonymous": false,
      "inputs": [
        {
          "indexed": true,
          "internalType": "uint256",
          "name": "tokenId",
          "type": "uint256"
        },
        {
          "indexed": true,
          "internalType": "address",
          "name": "holder",
          "type": "address"
        },
        {
          "indexed": false,
          "internalType": "string",
          "name": "did",
          "type": "string"
        },
        {
          "indexed": false,
          "internalType": "bytes32",
          "name": "vcHash",
          "type": "bytes32"
        }
      ],
      "name": "SBTMinted",
      "type": "event"
    },
    {
      "anonymous": false,
      "inputs": [
        {
          "indexed": true,
          "internalType": "address",
          "name": "from",
          "type": "address"
        },
        {
          "indexed": true,
          "internalType": "address",
          "name": "to",
          "type": "address"
        },
        {
          "indexed": true,
          "internalType": "uint256",
          "name": "tokenId",
          "type": "uint256"
        }
      ],
      "name": "Transfer",
      "type": "event"
    },
    {
      "anonymous": false,
      "inputs": [
        {
          "indexed": true,
          "internalType": "uint256",
          "name": "tokenId",
          "type": "uint256"
        },
        {
          "indexed": true,
          "internalType": "bytes32",
          "name": "vcHash",
          "type": "bytes32"
        },
        {
          "indexed": false,
          "internalType": "uint256",
          "name": "hashCount",
          "type": "uint256"
        }
      ],
      "name": "VCHashRegistered",
      "type": "event"
    },
    {
      "anonymous": false,
      "inputs": [
        {
          "indexed": true,
          "internalType": "uint256",
          "name": "tokenId",
          "type": "uint256"
        },
        {
          "indexed": true,
          "internalType": "bytes32",
          "name": "oldHash",
          "type": "bytes32"
        },
        {
          "indexed": true,
          "internalType": "bytes32",
          "name": "newHash",
          "type": "bytes32"
        }
      ],
      "name": "VCHashUpdated",
      "type": "event"
    },
    {
      "inputs": [
        {
          "internalType": "address",
          "name": "to",
          "type": "address"
        },
        {
          "internalType": "uint256",
          "name": "tokenId",
          "type": "uint256"
        }
      ],
      "name": "approve",
      "outputs": [],
      "stateMutability": "nonpayable",
      "type": "function"
    },
    {
      "inputs": [
        {
          "internalType": "address",
          "name": "owner",
          "type": "address"
        }
      ],
      "name": "balanceOf",
      "outputs": [
        {
          "internalType": "uint256",
          "name": "",
          "type": "uint256"
        }
      ],
      "stateMutability": "view",
      "type": "function"
    },
    {
      "inputs": [
        {
          "internalType": "uint256",
          "name": "tokenId",
          "type": "uint256"
        }
      ],
      "name": "getAllVCHashes",
      "outputs": [
        {
          "internalType": "bytes32[]",
          "name": "",
          "type": "bytes32[]"
        }
      ],
      "stateMutability": "view",
      "type": "function"
    },
    {
      "inputs": [
        {
          "internalType": "uint256",
          "name": "tokenId",
          "type": "uint256"
        }
      ],
      "name": "getApproved",
      "outputs": [
        {
          "internalType": "address",
          "name": "",
          "type": "address"
        }
      ],
      "stateMutability": "view",
      "type": "function"
    },
    {
      "inputs": [
        {
          "internalType": "uint256",
          "name": "tokenId",
          "type": "uint256"
        }
      ],
      "name": "getLatestVC",
      "outputs": [
        {
          "internalType": "bytes32",
          "name": "",
          "type": "bytes32"
        }
      ],
      "stateMutability": "view",
      "type": "function"
    },
    {
      "inputs": [
        {
          "internalType": "address",
          "name": "holder",
          "type": "address"
        }
      ],
      "name": "getSBTInfo",
      "outputs": [
        {
          "internalType": "uint256",
          "name": "tokenId",
          "type": "uint256"
        },
        {
          "internalType": "string",
          "name": "did",
          "type": "string"
        },
        {
          "internalType": "bytes32",
          "name": "latestVCHash",
          "type": "bytes32"
        }
      ],
      "stateMutability": "view",
      "type": "function"
    },
    {
      "inputs": [
        {
          "internalType": "uint256",
          "name": "tokenId",
          "type": "uint256"
        }
      ],
      "name": "getVCHashCount",
      "outputs": [
        {
          "internalType": "uint256",
          "name": "",
          "type": "uint256"
        }
      ],
      "stateMutability": "view",
      "type": "function"
    },
    {
      "inputs": [
        {
          "internalType": "address",
          "name": "",
          "type": "address"
        }
      ],
      "name": "holderToken",
      "outputs": [
        {
          "internalType": "uint256",
          "name": "",
          "type": "uint256"
        }
      ],
      "stateMutability": "view",
      "type": "function"
    },
    {
      "inputs": [
        {
          "internalType": "address",
          "name": "owner",
          "type": "address"
        },
        {
          "internalType": "address",
          "name": "operator",
          "type": "address"
        }
      ],
      "name": "isApprovedForAll",
      "outputs": [
        {
          "internalType": "bool",
          "name": "",
          "type": "bool"
        }
      ],
      "stateMutability": "view",
      "type": "function"
    },
    {
      "inputs": [
        {
          "internalType": "address",
          "name": "to",
          "type": "address"
        },
        {
          "internalType": "string",
          "name": "did",
          "type": "string"
        },
        {
          "internalType": "string",
          "name": "uri",
          "type": "string"
        },
        {
          "internalType": "bytes32",
          "name": "vcHash",
          "type": "bytes32"
        }
      ],
      "name": "mintSBT",
      "outputs": [
        {
          "internalType": "uint256",
          "name": "",
          "type": "uint256"
        }
      ],
      "stateMutability": "nonpayable",
      "type": "function"
    },
    {
      "inputs": [],
      "name": "name",
      "outputs": [
        {
          "internalType": "string",
          "name": "",
          "type": "string"
        }
      ],
      "stateMutability": "view",
      "type": "function"
    },
    {
      "inputs": [],
      "name": "owner",
      "outputs": [
        {
          "internalType": "address",
          "name": "",
          "type": "address"
        }
      ],
      "stateMutability": "view",
      "type": "function"
    },
    {
      "inputs": [
        {
          "internalType": "uint256",
          "name": "tokenId",
          "type": "uint256"
        }
      ],
      "name": "ownerOf",
      "outputs": [
        {
          "internalType": "address",
          "name": "",
          "type": "address"
        }
      ],
      "stateMutability": "view",
      "type": "function"
    },
    {
      "inputs": [
        {
          "internalType": "uint256",
          "name": "tokenId",
          "type": "uint256"
        },
        {
          "internalType": "bytes32",
          "name": "newVCHash",
          "type": "bytes32"
        }
      ],
      "name": "registerVC",
      "outputs": [],
      "stateMutability": "nonpayable",
      "type": "function"
    },
    {
      "inputs": [],
      "name": "renounceOwnership",
      "outputs": [],
      "stateMutability": "nonpayable",
      "type": "function"
    },
    {
      "inputs": [
        {
          "internalType": "address",
          "name": "from",
          "type": "address"
        },
        {
          "internalType": "address",
          "name": "to",
          "type": "address"
        },
        {
          "internalType": "uint256",
          "name": "tokenId",
          "type": "uint256"
        }
      ],
      "name": "safeTransferFrom",
      "outputs": [],
      "stateMutability": "nonpayable",
      "type": "function"
    },
    {
      "inputs": [
        {
          "internalType": "address",
          "name": "from",
          "type": "address"
        },
        {
          "internalType": "address",
          "name": "to",
          "type": "address"
        },
        {
          "internalType": "uint256",
          "name": "tokenId",
          "type": "uint256"
        },
        {
          "internalType": "bytes",
          "name": "data",
          "type": "bytes"
        }
      ],
      "name": "safeTransferFrom",
      "outputs": [],
      "stateMutability": "nonpayable",
      "type": "function"
    },
    {
      "inputs": [
        {
          "internalType": "address",
          "name": "operator",
          "type": "address"
        },
        {
          "internalType": "bool",
          "name": "approved",
          "type": "bool"
        }
      ],
      "name": "setApprovalForAll",
      "outputs": [],
      "stateMutability": "nonpayable",
      "type": "function"
    },
    {
      "inputs": [
        {
          "internalType": "bytes4",
          "name": "interfaceId",
          "type": "bytes4"
        }
      ],
      "name": "supportsInterface",
      "outputs": [
        {
          "internalType": "bool",
          "name": "",
          "type": "bool"
        }
      ],
      "stateMutability": "view",
      "type": "function"
    },
    {
      "inputs": [],
      "name": "symbol",
      "outputs": [
        {
          "internalType": "string",
          "name": "",
          "type": "string"
        }
      ],
      "stateMutability": "view",
      "type": "function"
    },
    {
      "inputs": [
        {
          "internalType": "uint256",
          "name": "",
          "type": "uint256"
        }
      ],
      "name": "tokenDID",
      "outputs": [
        {
          "internalType": "string",
          "name": "",
          "type": "string"
        }
      ],
      "stateMutability": "view",
      "type": "function"
    },
    {
      "inputs": [
        {
          "internalType": "uint256",
          "name": "",
          "type": "uint256"
        }
      ],
      "name": "tokenHolder",
      "outputs": [
        {
          "internalType": "address",
          "name": "",
          "type": "address"
        }
      ],
      "stateMutability": "view",
      "type": "function"
    },
    {
      "inputs": [
        {
          "internalType": "uint256",
          "name": "tokenId",
          "type": "uint256"
        }
      ],
      "name": "tokenURI",
      "outputs": [
        {
          "internalType": "string",
          "name": "",
          "type": "string"
        }
      ],
      "stateMutability": "view",
      "type": "function"
    },
    {
      "inputs": [],
      "name": "totalSupply",
      "outputs": [
        {
          "internalType": "uint256",
          "name": "",
          "type": "uint256"
        }
      ],
      "stateMutability": "view",
      "type": "function"
    },
    {
      "inputs": [
        {
          "internalType": "address",
          "name": "from",
          "type": "address"
        },
        {
          "internalType": "address",
          "name": "to",
          "type": "address"
        },
        {
          "internalType": "uint256",
          "name": "tokenId",
          "type": "uint256"
        }
      ],
      "name": "transferFrom",
      "outputs": [],
      "stateMutability": "nonpayable",
      "type": "function"
    },
    {
      "inputs": [
        {
          "internalType": "address",
          "name": "newOwner",
          "type": "address"
        }
      ],
      "name": "transferOwnership",
      "outputs": [],
      "stateMutability": "nonpayable",
      "type": "function"
    },
    {
      "inputs": [
        {
          "internalType": "uint256",
          "name": "tokenId",
          "type": "uint256"
        },
        {
          "internalType": "string",
          "name": "newTokenURI",
          "type": "string"
        }
      ],
      "name": "updateTokenURI",
      "outputs": [],
      "stateMutability": "nonpayable",
      "type": "function"
    },
    {
      "inputs": [
        {
          "internalType": "uint256",
          "name": "",
          "type": "uint256"
        },
        {
          "internalType": "uint256",
          "name": "",
          "type": "uint256"
        }
      ],
      "name": "vcHashes",
      "outputs": [
        {
          "internalType": "bytes32",
          "name": "",
          "type": "bytes32"
        }
      ],
      "stateMutability": "view",
      "type": "function"
    }
  ],
  "bytecode": "0x60806040523480156200001157600080fd5b50336040518060400160405280601581526020017f496e766573746f7243726564656e7469616c5342540000000000000000000000815250604051806040016040528060058152602001641250d4d09560da1b8152508160009081620000789190620001c2565b506001620000878282620001c2565b5050506001600160a01b038116620000b957604051631e4fbdf760e01b81526000600482015260240160405180910390fd5b620000c481620000cb565b506200028e565b600780546001600160a01b038381166001600160a01b0319831681179093556040519116919082907f8be0079c531659141344cd1fd0a4f28419497f9722a3daafe3b4186f6b6457e090600090a35050565b634e487b7160e01b600052604160045260246000fd5b600181811c908216806200014857607f821691505b6020821081036200016957634e487b7160e01b600052602260045260246000fd5b50919050565b601f821115620001bd57600081815260208120601f850160051c81016020861015620001985750805b601f850160051c820191505b81811015620001b957828155600101620001a4565b5050505b505050565b81516001600160401b03811115620001de57620001de6200011d565b620001f681620001ef845462000133565b846200016f565b602080601f8311600181146200022e5760008415620002155750858301515b600019600386901b1c1916600185901b178555620001b9565b600085815260208120601f198616915b828110156200025f578886015182559484019460019091019084016200023e565b50858210156200027e5787850151600019600388901b60f8161c191681555b5050505050600190811b01905550565b611fd7806200029e6000396000f3fe608060405234801561001057600080fd5b50600436106101c45760003560e01c8063715018a6116100f9578063b6d4ae3511610097578063da7a240511610071578063da7a2405146103e8578063e985e9c5146103fb578063ed0738461461040e578063f2fde38b1461042157600080fd5b8063b6d4ae35146103af578063b88d4fde146103c2578063c87b56dd146103d557600080fd5b806395d89b41116100d357806395d89b411461035f578063a22cb46514610367578063ae0616291461037a578063b166224c1461038d57600080fd5b8063715018a61461031d578063862a4bf2146103255780638da5cb5b1461034e57600080fd5b806318e97fd11161016657806342842e0e1161014057806342842e0e146102c45780634c8db54d146102d75780636352211e146102f757806370a082311461030a57600080fd5b806318e97fd11461028b57806323b872dd1461029e5780632bd179b0146102b157600080fd5b8063095ea7b3116101a2578063095ea7b3146102315780631228f7c514610246578063145813a71461025957806318160ddd1461027957600080fd5b806301ffc9a7146101c957806306fdde03146101f1578063081812fc14610206575b600080fd5b6101dc6101d7366004611908565b610434565b60405190151581526020015b60405180910390f35b6101f9610445565b6040516101e89190611975565b610219610214366004611988565b6104d7565b6040516001600160a01b0390911681526020016101e8565b61024461023f3660046119bd565b610500565b005b6102446102543660046119e7565b61050f565b61026c610267366004611988565b610688565b6040516101e89190611a09565b6008545b6040519081526020016101e8565b610244610299366004611af9565b61071b565b6102446102ac366004611b40565b61075e565b6101f96102bf366004611988565b6107e9565b6102446102d2366004611b40565b610883565b61027d6102e5366004611b7c565b600b6020526000908152604090205481565b610219610305366004611988565b6108a3565b61027d610318366004611b7c565b6108ae565b6102446108f6565b610219610333366004611988565b600a602052600090815260409020546001600160a01b031681565b6007546001600160a01b0316610219565b6101f961090a565b610244610375366004611b97565b610919565b61027d610388366004611988565b610924565b6103a061039b366004611b7c565b6109e1565b6040516101e893929190611bd3565b61027d6103bd3660046119e7565b610b10565b6102446103d0366004611bfc565b610b41565b6101f96103e3366004611988565b610b59565b61027d6103f6366004611c78565b610b64565b6101dc610409366004611cf4565b610df0565b61027d61041c366004611988565b610e1e565b61024461042f366004611b7c565b610e63565b600061043f82610ea1565b92915050565b60606000805461045490611d27565b80601f016020809104026020016040519081016040528092919081815260200182805461048090611d27565b80156104cd5780601f106104a2576101008083540402835291602001916104cd565b820191906000526020600020905b8154815290600101906020018083116104b057829003601f168201915b5050505050905090565b60006104e282610ec6565b506000828152600460205260409020546001600160a01b031661043f565b61050b828233610efe565b5050565b610517610f0b565b600061052283610f38565b6001600160a01b0316036105515760405162461bcd60e51b815260040161054890611d61565b60405180910390fd5b8061059e5760405162461bcd60e51b815260206004820152601c60248201527f5342543a20564320686173682063616e6e6f7420626520656d707479000000006044820152606401610548565b600082815260096020526040812054156105ec57600083815260096020526040902080546105ce90600190611dae565b815481106105de576105de611dc1565b906000526020600020015490505b60008381526009602090815260408083208054600181018255908452918320909101849055518391839186917f35ce32d16271679e9ef9681c4289bcb7099dea92ef789a75b0cad921b9acd77b91a4600083815260096020908152604091829020549151918252839185917f0b14da3e3478d237137f8e8c5d41cf831d86392b284fde27f591d8a666d4749d91015b60405180910390a3505050565b6060600061069583610f38565b6001600160a01b0316036106bb5760405162461bcd60e51b815260040161054890611d61565b6000828152600960209081526040918290208054835181840281018401909452808452909183018282801561070f57602002820191906000526020600020905b8154815260200190600101908083116106fb575b50505050509050919050565b610723610f0b565b600061072e83610f38565b6001600160a01b0316036107545760405162461bcd60e51b815260040161054890611d61565b61050b8282610f53565b6001600160a01b03821661078857604051633250574960e11b815260006004820152602401610548565b6000610795838333610fa3565b9050836001600160a01b0316816001600160a01b0316146107e3576040516364283d7b60e01b81526001600160a01b0380861660048301526024820184905282166044820152606401610548565b50505050565b600c602052600090815260409020805461080290611d27565b80601f016020809104026020016040519081016040528092919081815260200182805461082e90611d27565b801561087b5780601f106108505761010080835404028352916020019161087b565b820191906000526020600020905b81548152906001019060200180831161085e57829003601f168201915b505050505081565b61089e83838360405180602001604052806000815250610b41565b505050565b600061043f82610ec6565b60006001600160a01b0382166108da576040516322718ad960e21b815260006004820152602401610548565b506001600160a01b031660009081526003602052604090205490565b6108fe610f0b565b6109086000611045565b565b60606001805461045490611d27565b61050b338383611097565b60008061093083610f38565b6001600160a01b0316036109565760405162461bcd60e51b815260040161054890611d61565b600082815260096020526040902054806109a55760405162461bcd60e51b815260206004820152601060248201526f14d0950e881b9bc81590c8199bdd5b9960821b6044820152606401610548565b60008381526009602052604090206109be600183611dae565b815481106109ce576109ce611dc1565b9060005260206000200154915050919050565b6001600160a01b0381166000908152600b602052604081205490606090828103610a1f57505060408051602081019091526000808252915081610b09565b6000838152600c602052604090208054610a3890611d27565b80601f0160208091040260200160405190810160405280929190818152602001828054610a6490611d27565b8015610ab15780601f10610a8657610100808354040283529160200191610ab1565b820191906000526020600020905b815481529060010190602001808311610a9457829003601f168201915b5050506000868152600960205260409020549294505090159050610b095760008381526009602052604090208054610aeb90600190611dae565b81548110610afb57610afb611dc1565b906000526020600020015490505b9193909250565b60096020528160005260406000208181548110610b2c57600080fd5b90600052602060002001600091509150505481565b610b4c84848461075e565b6107e3338585858561112e565b606061043f82611259565b6000610b6e610f0b565b6001600160a01b038516610bc45760405162461bcd60e51b815260206004820181905260248201527f5342543a2063616e6e6f74206d696e7420746f207a65726f20616464726573736044820152606401610548565b6001600160a01b0385166000908152600b602052604090205415610c2a5760405162461bcd60e51b815260206004820152601c60248201527f5342543a206164647265737320616c72656164792068617320534254000000006044820152606401610548565b81610c775760405162461bcd60e51b815260206004820152601c60248201527f5342543a20564320686173682063616e6e6f7420626520656d707479000000006044820152606401610548565b6000845111610cc85760405162461bcd60e51b815260206004820152601860248201527f5342543a204449442063616e6e6f7420626520656d70747900000000000000006044820152606401610548565b60088054906000610cd883611dd7565b9091555050600854610cea868261136a565b610cf48185610f53565b6000818152600a6020908152604080832080546001600160a01b0319166001600160a01b038b169081179091558352600b8252808320849055838352600c9091529020610d418682611e36565b50600081815260096020908152604080832080546001810182559084529190922001849055516001600160a01b0387169082907fd9984e20a9754a7f852e51d0a72648efe804a708d169d6a0b0fa645cca36cc9590610da39089908890611ef6565b60405180910390a382817f0b14da3e3478d237137f8e8c5d41cf831d86392b284fde27f591d8a666d4749d6001604051610ddf91815260200190565b60405180910390a395945050505050565b6001600160a01b03918216600090815260056020908152604080832093909416825291909152205460ff1690565b600080610e2a83610f38565b6001600160a01b031603610e505760405162461bcd60e51b815260040161054890611d61565b5060009081526009602052604090205490565b610e6b610f0b565b6001600160a01b038116610e9557604051631e4fbdf760e01b815260006004820152602401610548565b610e9e81611045565b50565b60006001600160e01b03198216632483248360e11b148061043f575061043f82611384565b600080610ed283610f38565b90506001600160a01b03811661043f57604051637e27328960e01b815260048101849052602401610548565b61089e83838360016113d4565b6007546001600160a01b031633146109085760405163118cdaa760e01b8152336004820152602401610548565b6000908152600260205260409020546001600160a01b031690565b6000828152600660205260409020610f6b8282611e36565b506040518281527ff8e1a15aba9398e019f0b49df1a4fde98ee17ae345cb5f6b5e2c27f5033e8ce79060200160405180910390a15050565b600080610faf84610f38565b90506001600160a01b03811615801590610fd157506001600160a01b03851615155b156110315760405162461bcd60e51b815260206004820152602a60248201527f5342543a20736f756c626f756e6420746f6b656e7320617265206e6f6e2d7472604482015269616e7366657261626c6560b01b6064820152608401610548565b61103c8585856114da565b95945050505050565b600780546001600160a01b038381166001600160a01b0319831681179093556040519116919082907f8be0079c531659141344cd1fd0a4f28419497f9722a3daafe3b4186f6b6457e090600090a35050565b6001600160a01b0382166110c957604051630b61174360e31b81526001600160a01b0383166004820152602401610548565b6001600160a01b03838116600081815260056020908152604080832094871680845294825291829020805460ff191686151590811790915591519182527f17307eab39ab6107e8899845ad3d59bd9653f200f220920489ca2b5937696c31910161067b565b6001600160a01b0383163b1561125257604051630a85bd0160e11b81526001600160a01b0384169063150b7a0290611170908890889087908790600401611f18565b6020604051808303816000875af19250505080156111ab575060408051601f3d908101601f191682019092526111a891810190611f55565b60015b611214573d8080156111d9576040519150601f19603f3d011682016040523d82523d6000602084013e6111de565b606091505b50805160000361120c57604051633250574960e11b81526001600160a01b0385166004820152602401610548565b805181602001fd5b6001600160e01b03198116630a85bd0160e11b1461125057604051633250574960e11b81526001600160a01b0385166004820152602401610548565b505b5050505050565b606061126482610ec6565b506000828152600660205260408120805461127e90611d27565b80601f01602080910402602001604051908101604052809291908181526020018280546112aa90611d27565b80156112f75780601f106112cc576101008083540402835291602001916112f7565b820191906000526020600020905b8154815290600101906020018083116112da57829003601f168201915b50505050509050600061131560408051602081019091526000815290565b90508051600003611327575092915050565b815115611359578082604051602001611341929190611f72565b60405160208183030381529060405292505050919050565b611362846115ce565b949350505050565b61050b828260405180602001604052806000815250611643565b60006001600160e01b031982166380ac58cd60e01b14806113b557506001600160e01b03198216635b5e139f60e01b145b8061043f57506301ffc9a760e01b6001600160e01b031983161461043f565b80806113e857506001600160a01b03821615155b156114aa5760006113f884610ec6565b90506001600160a01b038316158015906114245750826001600160a01b0316816001600160a01b031614155b801561143757506114358184610df0565b155b156114605760405163a9fbf51f60e01b81526001600160a01b0384166004820152602401610548565b81156114a85783856001600160a01b0316826001600160a01b03167f8c5be1e5ebec7d5bd14f71427d1e84f3dd0314c0f7b2291e5b200ac8c7c3b92560405160405180910390a45b505b5050600090815260046020526040902080546001600160a01b0319166001600160a01b0392909216919091179055565b6000806114e684610f38565b90506001600160a01b038316156115025761150281848661165b565b6001600160a01b038116156115405761151f6000856000806113d4565b6001600160a01b038116600090815260036020526040902080546000190190555b6001600160a01b0385161561156f576001600160a01b0385166000908152600360205260409020805460010190555b60008481526002602052604080822080546001600160a01b0319166001600160a01b0389811691821790925591518793918516917fddf252ad1be2c89b69c2b068fc378daa952ba7f163c4a11628f55a4df523b3ef91a4949350505050565b60606115d982610ec6565b5060006115f160408051602081019091526000815290565b90506000815111611611576040518060200160405280600081525061163c565b8061161b846116bf565b60405160200161162c929190611f72565b6040516020818303038152906040525b9392505050565b61164d8383611752565b61089e33600085858561112e565b6116668383836117b7565b61089e576001600160a01b03831661169457604051637e27328960e01b815260048101829052602401610548565b60405163177e802f60e01b81526001600160a01b038316600482015260248101829052604401610548565b606060006116cc8361181a565b600101905060008167ffffffffffffffff8111156116ec576116ec611a4d565b6040519080825280601f01601f191660200182016040528015611716576020820181803683370190505b5090508181016020015b600019016f181899199a1a9b1b9c1cb0b131b232b360811b600a86061a8153600a850494508461172057509392505050565b6001600160a01b03821661177c57604051633250574960e11b815260006004820152602401610548565b600061178a83836000610fa3565b90506001600160a01b0381161561089e576040516339e3563760e11b815260006004820152602401610548565b60006001600160a01b038316158015906113625750826001600160a01b0316846001600160a01b031614806117f157506117f18484610df0565b806113625750506000908152600460205260409020546001600160a01b03908116911614919050565b60008072184f03e93ff9f4daa797ed6e38ed64bf6a1f0160401b83106118595772184f03e93ff9f4daa797ed6e38ed64bf6a1f0160401b830492506040015b6d04ee2d6d415b85acef81000000008310611885576d04ee2d6d415b85acef8100000000830492506020015b662386f26fc1000083106118a357662386f26fc10000830492506010015b6305f5e10083106118bb576305f5e100830492506008015b61271083106118cf57612710830492506004015b606483106118e1576064830492506002015b600a831061043f5760010192915050565b6001600160e01b031981168114610e9e57600080fd5b60006020828403121561191a57600080fd5b813561163c816118f2565b60005b83811015611940578181015183820152602001611928565b50506000910152565b60008151808452611961816020860160208601611925565b601f01601f19169290920160200192915050565b60208152600061163c6020830184611949565b60006020828403121561199a57600080fd5b5035919050565b80356001600160a01b03811681146119b857600080fd5b919050565b600080604083850312156119d057600080fd5b6119d9836119a1565b946020939093013593505050565b600080604083850312156119fa57600080fd5b50508035926020909101359150565b6020808252825182820181905260009190848201906040850190845b81811015611a4157835183529284019291840191600101611a25565b50909695505050505050565b634e487b7160e01b600052604160045260246000fd5b600067ffffffffffffffff80841115611a7e57611a7e611a4d565b604051601f8501601f19908116603f01168101908282118183101715611aa657611aa6611a4d565b81604052809350858152868686011115611abf57600080fd5b858560208301376000602087830101525050509392505050565b600082601f830112611aea57600080fd5b61163c83833560208501611a63565b60008060408385031215611b0c57600080fd5b82359150602083013567ffffffffffffffff811115611b2a57600080fd5b611b3685828601611ad9565b9150509250929050565b600080600060608486031215611b5557600080fd5b611b5e846119a1565b9250611b6c602085016119a1565b9150604084013590509250925092565b600060208284031215611b8e57600080fd5b61163c826119a1565b60008060408385031215611baa57600080fd5b611bb3836119a1565b915060208301358015158114611bc857600080fd5b809150509250929050565b838152606060208201526000611bec6060830185611949565b9050826040830152949350505050565b60008060008060808587031215611c1257600080fd5b611c1b856119a1565b9350611c29602086016119a1565b925060408501359150606085013567ffffffffffffffff811115611c4c57600080fd5b8501601f81018713611c5d57600080fd5b611c6c87823560208401611a63565b91505092959194509250565b60008060008060808587031215611c8e57600080fd5b611c97856119a1565b9350602085013567ffffffffffffffff80821115611cb457600080fd5b611cc088838901611ad9565b94506040870135915080821115611cd657600080fd5b50611ce387828801611ad9565b949793965093946060013593505050565b60008060408385031215611d0757600080fd5b611d10836119a1565b9150611d1e602084016119a1565b90509250929050565b600181811c90821680611d3b57607f821691505b602082108103611d5b57634e487b7160e01b600052602260045260246000fd5b50919050565b60208082526019908201527f5342543a20746f6b656e20646f6573206e6f7420657869737400000000000000604082015260600190565b634e487b7160e01b600052601160045260246000fd5b8181038181111561043f5761043f611d98565b634e487b7160e01b600052603260045260246000fd5b600060018201611de957611de9611d98565b5060010190565b601f82111561089e57600081815260208120601f850160051c81016020861015611e175750805b601f850160051c820191505b8181101561125057828155600101611e23565b815167ffffffffffffffff811115611e5057611e50611a4d565b611e6481611e5e8454611d27565b84611df0565b602080601f831160018114611e995760008415611e815750858301515b600019600386901b1c1916600185901b178555611250565b600085815260208120601f198616915b82811015611ec857888601518255948401946001909101908401611ea9565b5085821015611ee65787850151600019600388901b60f8161c191681555b5050505050600190811b01905550565b604081526000611f096040830185611949565b90508260208301529392505050565b6001600160a01b0385811682528416602082015260408101839052608060608201819052600090611f4b90830184611949565b9695505050505050565b600060208284031215611f6757600080fd5b815161163c816118f2565b60008351611f84818460208801611925565b835190830190611f98818360208801611925565b0194935050505056fea264697066735822122031ea42a6cb581b76b28ebd0bdae6ae280e9bfe7a517abfd6992b2ae50456080464736f6c63430008140033",
  "linkReferences": {},
  "deployedLinkReferences": {}
}